:020000040800F2
:1000000000002F2069C000085D4400085F4400081C
:10001000614400086344000865440008B9C0000852
:10002000000000000000000000000000A19D00088A
:100030006744000800000000319D00084DB9000829
:10004000B9C00008B9C00008B9C00008B9C00008AC
:10005000B9C00008B9C00008B9C00008B9C000089C
:10006000B9C00008B9C00008B9C00008B9C000088C
:10007000B9C00008B9C00008B9C00008B9C000087C
:1000800069440008B9C00008B9C00008B9C0000838
:10009000B9C00008B9C00008B9C00008B9C000085C
:1000A000B9C00008B9C00008B9C00008B9C000084C
:1000B000B9C00008714400087D440008B9C00008B8
:1000C000B9C00008B9C00008B9C00008B9C000082C
:1000D000B9C00008B9C00008B9C00008B9C000081C
:1000E000B9C00008B9C00008B9C00008B9C000080C
:1000F000B9C00008B9C00008B9C00008B9C00008FC
:10010000B9C0000889440008B9C00008B9C0000897
:10011000B9C00008B9C00008B9C00008B9C00008DB
:10012000B9C00008B9C00008B9C00008B9C00008CB
:10013000B9C00008B9C00008B9C00008B9C00008BB
:10014000B9C00008B9C00008B9C00008B9C00008AB
:10015000B9C00008B9C00008B9C00008B9C000089B
:10016000B9C00008B9C00008B9C00008B9C000088B
:10017000B9C00008B9C00008B9C00008B9C000087B
:10018000B9C00008B9C00008B9C00008B9C000086B
:10019000B9C00008B9C00008B9C00008B9C000085B
:1001A000B9C00008B9C00008B9C00008B9C000084B
:1001B000B9C00008B9C00008B9C00008B9C000083B
:1001C000B9C00008B9C00008B9C00008B9C000082B
:1001D000B9C00008B9C00008B9C00008B9C000081B
:1001E000B9C00008B9C00008B9C00008B9C000080B
:1001F000B9C00008B9C00008B9C00008B9C00008FB
:10020000B9C00008B9C00008B9C00008B9C00008EA
:10021000B9C00008B9C0000895440008B9C000087A
:10022000B9C00008B9C00008B9C00008B9C00008CA
:10023000B9C00008B9C00008B9C00008B9C00008BA
:10024000B9C00008B9C00008B9C00008A14400083E
:10025000AD440008B9440008B9C00008C54400080E
:10026000D1440008B9C00008B9C00008B9C00008EE
:04027000D544000869
:1002800010B5054C237833B9044B13B1044800E092
:1002900000BF0123237010BD0833062000000000BA
:1002A000C88D030808B5034B1BB10349034800E0A0
:1002B00000BF08BD000000000C330620C88D0308F5
:1002C00081F0004102E000BF83F0004330B54FEA07
:1002D00041044FEA430594EA050F08BF90EA020F74
:1002E0001FBF54EA000C55EA020C7FEA645C7FEA07
:1002F000655C00F0E2804FEA5454D4EB5555B8BF2A
:100300006D420CDD2C4480EA020281EA030382EA9A
:10031000000083EA010180EA020281EA0303362D2C
:1003200088BF30BD11F0004F4FEA01314FF4801CFF
:100330004CEA113102D0404261EB410113F0004F11
:100340004FEA03334CEA133302D0524263EB4303C8
:1003500094EA050F00F0A780A4F10104D5F1200E66
:100360000DDB02FA0EFC22FA05F2801841F10001C1
:1003700003FA0EF2801843FA05F359410EE0A5F195
:1003800020050EF1200E012A03FA0EFC28BF4CF0C6
:10039000020C43FA05F3C01851EBE37101F000457C
:1003A00007D54FF0000EDCF1000C7EEB00006EEB89
:1003B0000101B1F5801F1BD3B1F5001F0CD3490813
:1003C0005FEA30004FEA3C0C04F101044FEA44526A
:1003D00012F5800F80F09A80BCF1004F08BF5FEAF1
:1003E000500C50F1000041EB045141EA050130BDD1
:1003F0005FEA4C0C404141EB010111F4801FA4F174
:100400000104E9D191F0000F04BF01460020B1FAC8
:1004100081F308BF2033A3F10B03B3F120020CDA00
:100420000C3208DD02F1140CC2F10C0201FA0CF0DE
:1004300021FA02F10CE002F11402D8BFC2F1200C43
:1004400001FA02F120FA0CFCDCBF41EA0C019040F9
:10045000E41AA2BF01EB0451294330BD6FEA040442
:100460001F3C1CDA0C340EDC04F11404C4F120022D
:1004700020FA04F001FA02F340EA030021FA04F33F
:1004800045EA030130BDC4F10C04C4F1200220FA96
:1004900002F001FA04F340EA0300294630BD21FAD4
:1004A00004F0294630BD94F0000F83F4801306BF9A
:1004B00081F480110134013D4EE77FEA645C18BF8E
:1004C0007FEA655C29D094EA050F08BF90EA020F25
:1004D00005D054EA000C04BF1946104630BD91EA1D
:1004E000030F1EBF0021002030BD5FEA545C05D120
:1004F0004000494128BF41F0004130BD14F580045F
:100500003CBF01F5801130BD01F0004545F0FE41D2
:1005100041F470014FF0000030BD7FEA645C1ABF07
:10052000194610467FEA655C1CBF0B46024650EA3E
:10053000013406BF52EA033591EA030F41F400216A
:1005400030BD00BF90F0000F04BF0021704730B5F0
:100550004FF4806404F132044FF000054FF00001C5
:1005600050E700BF90F0000F04BF0021704730B586
:100570004FF4806404F1320410F0004548BF40425B
:100580004FF000013EE700BF42004FEAE2014FEAB0
:1005900031014FEA02701FBF12F07F4393F07F4F8B
:1005A00081F06051704732F07F4208BF704793F08E
:1005B0007F4F04BF41F40021704730B54FF46074A1
:1005C00001F0004521F000411CE700BF50EA0102A4
:1005D00008BF704730B54FF000050AE050EA01024D
:1005E00008BF704730B511F0004502D5404261EBBD
:1005F00041014FF4806404F132045FEA915C3FF4FE
:10060000D8AE4FF003025FEADC0C18BF03325FEA9A
:10061000DC0C18BF033202EBDC02C2F1200300FA4B
:1006200003FC20FA02F001FA03FE40EA0E0021FA70
:1006300002F11444BDE600BF70B54FF0FF0C4CF45E
:10064000E06C1CEA11541DBF1CEA135594EA0C0F10
:1006500095EA0C0F00F0DEF82C4481EA030621EA4B
:100660004C5123EA4C5350EA013518BF52EA033586
:1006700041F4801143F4801338D0A0FB02CE4FF038
:100680000005E1FB02E506F00042E0FB03E54FF068
:100690000006E1FB03569CF0000F18BF4EF0010E60
:1006A000A4F1FF04B6F5007F64F5407404D25FEA5C
:1006B0004E0E6D4146EB060642EAC62141EA55510F
:1006C0004FEAC52040EA5E504FEACE2EB4F1FD0C51
:1006D00088BFBCF5E06F1ED8BEF1004F08BF5FEACF
:1006E000500E50F1000041EB045170BD06F0004681
:1006F00046EA010140EA020081EA0301B4EB5C042E
:10070000C2BFD4EB0C0541EA045170BD41F4801125
:100710004FF0000E013C00F3AB8014F1360FDEBF4A
:10072000002001F0004170BDC4F10004203C35DA26
:100730000C341BDC04F11404C4F1200500FA05F3A9
:1007400020FA04F001FA05F240EA020001F000424A
:1007500021F0004110EBD37021FA04F642EB0601C0
:100760005EEA430E08BF20EAD37070BDC4F10C04EA
:10077000C4F1200500FA04F320FA05F001FA04F2AE
:1007800040EA020001F0004110EBD37041F100019A
:100790005EEA430E08BF20EAD37070BDC4F12005A5
:1007A00000FA05F24EEA020E20FA04F301FA05F20D
:1007B00043EA020321FA04F001F0004121FA04F2B5
:1007C00020EA020000EBD3705EEA430E08BF20EA85
:1007D000D37070BD94F0000F0FD101F000464000BF
:1007E00041EB010111F4801F08BF013CF7D041EA41
:1007F000060195F0000F18BF704703F00046520045
:1008000043EB030313F4801F08BF013DF7D043EA15
:100810000603704794EA0C0F0CEA135518BF95EACB
:100820000C0F0CD050EA410618BF52EA4306D1D152
:1008300081EA030101F000414FF0000070BD50EA71
:10084000410606BF1046194652EA430619D094EAFB
:100850000C0F02D150EA013613D195EA0C0F05D1E5
:1008600052EA03361CBF104619460AD181EA030139
:1008700001F0004141F0FE4141F470014FF00000F1
:1008800070BD41F0FE4141F4780170BD70B54FF08C
:10089000FF0C4CF4E06C1CEA11541DBF1CEA13550C
:1008A00094EA0C0F95EA0C0F00F0A7F8A4EB0504EE
:1008B00081EA030E52EA03354FEA013100F08880E5
:1008C0004FEA03334FF0805545EA131343EA1263AE
:1008D0004FEA022245EA111545EA10654FEA002663
:1008E0000EF000419D4208BF964244F1FD0404F51C
:1008F000407402D25B084FEA3202B61A65EB030578
:100900005B084FEA32024FF480104FF4002CB6EB34
:10091000020E75EB030E22BFB61A754640EA0C00B4
:100920005B084FEA3202B6EB020E75EB030E22BFF4
:10093000B61A754640EA5C005B084FEA3202B6EB35
:10094000020E75EB030E22BFB61A754640EA9C00F4
:100950005B084FEA3202B6EB020E75EB030E22BFC4
:10096000B61A754640EADC0055EA060E18D04FEA82
:10097000051545EA16754FEA06164FEAC30343EA22
:1009800052734FEAC2025FEA1C1CC0D111F4801FEF
:100990000BD141EA00014FF000004FF0004CB6E7E8
:1009A00011F4801F04BF01430020B4F1FD0C88BF87
:1009B000BCF5E06F3FF6AFAEB5EB030C04BFB6EB92
:1009C000020C5FEA500C50F1000041EB045170BD85
:1009D0000EF0004E4EEA113114EB5C04C2BFD4EBB2
:1009E0000C0541EA045170BD41F480114FF0000E36
:1009F000013C90E645EA060E8DE60CEA135594EAB2
:100A00000C0F08BF95EA0C0F3FF43BAF94EA0C0FB4
:100A10000AD150EA01347FF434AF95EA0C0F7FF429
:100A200025AF104619462CE795EA0C0F06D152EA7D
:100A300003353FF4FDAE1046194622E750EA410661
:100A400018BF52EA43067FF4C5AE50EA41047FF472
:100A50000DAF52EA43057FF4EBAE12E74FEA4102D5
:100A6000B2F1E04324BFB3F5001CDCF1FE5C0DD90C
:100A700001F0004C4FEAC0024CEA5070B2F1004F56
:100A800040EB830008BF20F00100704711F0804F59
:100A900021D113F13872BCBF01F00040704741F41E
:100AA00080114FEA5252C2F11802C2F1200C10FA22
:100AB0000CF320FA02F018BF40F001004FEAC12306
:100AC0004FEAD32303FA0CFC40EA0C0023FA02F3AA
:100AD0004FEA4303CCE77FEA625307D150EA013380
:100AE0001EBF4FF0FE4040F44000704701F0004050
:100AF00040F0FE4040F40000704700BF70470438EB
:100B00007047704710B50446102135F065FD20464A
:100B100010BDA0F10400F5E7002210B58260044A80
:100B2000C16002F1080420320460426010BD00BFC1
:100B3000B08E0308704770477047D0F8883410B5FE
:100B4000032B08D8DFE803F0020B11154FF47A727B
:100B50005143C0F884140133C0F8883410BD6424B4
:100B6000D0F8842404FB0121F3E7D0F884240A247C
:100B7000F8E7D0F884241144EBE7036801219B6D6A
:100B80001847036802219B6D1847036803219B6D7A
:100B90001847036804219B6D1847036805219B6D66
:100BA0001847036806219B6D1847036807219B6D52
:100BB0001847036808219B6D1847036809219B6D3E
:100BC0001847036800219B6D1847000010B50446C4
:100BD000024B036000F0E1F9204610BDEC8E0308E3
:100BE00010B50446FFF7F2FF204640F28C4135F085
:100BF000F3FC204610BD000010B5044600F054FB85
:100C0000054B204623603223C4F880340023C4F807
:100C10008434C4F8883410BDEC8E030800F0BEB9EB
:100C200038B5D0F888340446012B13D14FF47A73C9
:100C3000D0F884240A2192FBF3F304F56C752E4A54
:100C400000F5896011F0BBFF28460CF047FD2846EF
:100C50000FF07EFDD4F88834022B12D16423D4F82F
:100C600084240A2192FBF3F304F56C75224A04F5FF
:100C7000896011F0A4FF28460CF030FD28460FF0E3
:100C800067FDD4F88834032B11D10A21D4F88434B9
:100C9000194A93FBF1F304F56C7504F5896011F0C2
:100CA0008EFF28460CF01AFD28460FF051FDD4F8AF
:100CB0008834042B0FD1D4F884340F4A0A2104F568
:100CC0006C7504F5896011F07AFF28460CF006FD7A
:100CD00028460FF03DFDD4F8803404F57F7084F889
:100CE00032340FF035FDD4F880340133FF2BC8BF08
:100CF0003223C4F8803438BDD88E030838B540F6A6
:100D00009E53D0F8842404469A424FF0000513D035
:100D1000C0F88454C0F888543C4A0A2100F5896020
:100D200004F56C7411F04BFF20460CF09BFC204640
:100D3000BDE838400FF00CBD80F8445380F82452D1
:100D400080F86C5280F8B45280F8FC5280F852530C
:100D500080F8325280F87A5280F8C25280F80A53F2
:100D600080F88C5380F89A5380F8BC5080F8045176
:100D700080F84C5180F8945180F8DC5180F8CA50CA
:100D800080F8125180F85A5180F8A25180F8EA5147
:100D900000F548700FF0DCFC04F198000FF0D8FC6F
:100DA00004F1E0000FF0D4FC04F594700FF0D0FCD7
:100DB00004F5B8700FF0CCFC04F5DC700FF0C8FC43
:100DC00004F500700FF0C4FC04F512700FF0C0FCC5
:100DD00004F524700FF0BCFC04F536700FF0B8FC7D
:100DE00004F55A700FF0B4FC4FF0FF2384F8E6537B
:100DF000C4F82C34064A0A2104F25C4004F57F74DE
:100E000011F0DDFE20460CF069FC90E76BBF030893
:100E1000DB8E03080022026070477047704700F5C0
:100E200098730868496803C37047704700F050BD65
:100E300010B504464FF4AE7135F0CEFB204610BD20
:100E400010B50446D0F85801FFF7E7FF2046BDE88B
:100E500010400EF089BC10B50446D0F8400158B1DE
:100E60000368DB68984738B1D4F8400103689B6891
:100E700098470023C4F8403110BD000010B5044667
:100E800000F0F6FC014B2046236010BD508F030894
:100E900090F8252012B103685B691847704700205D
:100EA000704781807047C1807047018170474181E0
:100EB000704770477047704770477047C38810B4D9
:100EC000D21A838812B2C91A036809B25B6D5DF841
:100ED000044B18474FF6FF7383814FF0FF330362D3
:100EE0001368C3611060704790F825201AB190F81C
:100EF000242002B1186070477047704770477047F0
:100F000030B585B06D460368018104460146D3F8CB
:100F100084302846984795E807003C3484E8070069
:100F200005B030BD30B585B06D46036841810446DB
:100F30000146D3F884302846984795E807003C34AA
:100F400084E8070005B030BD002202804280828024
:100F5000C280704780F83610704770B50446154659
:100F600003681B6B9847236829462046BDE87040FC
:100F70005B6E18470020704708B5FFF789FF08BD72
:100F8000806C704770477047704770477047704774
:100F9000704770477047704770477047704700F15F
:100FA0009803994270B504460D4602D10368DB6A86
:100FB000984704F1E0039D4203D1236820461B6B50
:100FC000984704F594739D4203D1236820465B6BD8
:100FD000984704F5B8739D4203D1236820469B6B64
:100FE000984704F5DC739D4203D123682046DB6BF0
:100FF000984704F500739D4203D1236820461B6C7B
:10100000984704F512739D4203D1236820465B6C18
:10101000984704F524739D4203D1236820469B6CB6
:10102000984704F536739D4203D123682046DB6C54
:10103000984704F548739D4203D1236820461B6DF1
:10104000984704F55A739D4205D123682046BDE8B0
:1010500070405B6D184770BD70477047034630B4F1
:10106000C56844686A10ED0704EB02009B6848BF3E
:10107000A25830BC48BFD358184743682BB1836887
:101080002BB9C06800F00100704718467047012076
:10109000704710B50446082135F09EFA204610BD71
:1010A00010B504464C2135F097FA204610BD10B516
:1010B0000446102135F090FA204610BD10B50446C4
:1010C0004FF4906135F088FA204610BD70B5036882
:1010D00004465E6B114B8DB21B682BB96C21104B13
:1010E000104A114836F048FE1049828D0988914215
:1010F00003D80F4B0B4A6D21F3E713F812200D4B69
:101100001B6853F8220003681B6B9847291A334663
:101110002046BDE8704009B2184700BFEC300820F7
:10112000579003087891030899900308F03008203D
:10113000DA900308F430082000224FF0FF3182607B
:10114000C0E90021704770B50446154603681B6B63
:101150009847236829462046BDE870405B6B1847D6
:1011600070B504461E46BDF91050FFF7ECFF23682A
:10117000314620469A6B9047236829462046BDE8B1
:101180007040DB6B18470000012180F825100B49E7
:1011900000220160FF218280C2800281428182811F
:1011A000C28102824282C0E90522C2610284428475
:1011B00080F8242080F826108262704708B4030863
:1011C000F8B51A4B018F1B8806468B4229D9184B5C
:1011D0001B682BB9174B184A6C21184836F0CCFD08
:1011E00013F81120164B1B6853F82250154B186842
:1011F00000F048FE2B6807469B6B284698472B68F3
:1012000004469B6C3946284698472B6814FB00F42B
:101210005B6A394628469847A4B22044A6F846009F
:10122000F8BD0023A0F84630FAE700BFF0300820F0
:10123000EC30082057900308789103089990030830
:10124000F4300820F8300820012180F825101449D6
:10125000002281624FF6FF7110B54FF47F04818543
:10126000A0F84010A0F842100E498280C28002818E
:1012700042818281C28102824282C0E90522C2612A
:101280000284428480F824200263446380F838207A
:1012900080F839208287C28742640160826410BD71
:1012A000A48F0308B48F03082DE9F04F04464FF0D4
:1012B000000B254697B010F01BF8DF4B4FF4F07889
:1012C000C4F83CB045F8403B04F16C062846FFF7F3
:1012D0005BFF3046FFF758FF04F1980304F1E00785
:1012E000184603930CF0B0FC38460CF0ADFC04F546
:1012F0009473184604930CF0A7FC04F5B8731846D1
:1013000005930CF0A1FC04F5DC73184606930CF071
:101310009BFC04F50073184607930CF095FC04F54C
:101320001273184608930CF08FFC04F524731846CA
:1013300009930CF089FC04F5367318460A930CF0F7
:1013400083FC04F5487318460B930CF07DFC04F500
:101350005A7318460C930CF077FC04F56C7318461E
:101360000293FFF771FF04F57F7318460D93FFF7A3
:101370006BFFB24B5A46C4F87034B14B2846C4F8E0
:101380007834CDF800804FF448735946C4F874445B
:10139000C4F87CB4FFF7E4FE4FF07F4304F1040986
:1013A0002946A36648460AF0C1FECDF800804FF0FA
:1013B00001085A4630464FF448736FF00201FFF7B8
:1013C000CFFEA04B3146C4F8943048460DF1580A80
:1013D0000AF0ACFE4FF4907228210398FFF7B3FE99
:1013E0002AF8088D524613A90398ADF84CB00CF0BA
:1013F00036FA0E234FF0FF3504F58E66A4F8D03090
:101400000398FFF7DDFEC4F8C06003994846C4E9BD
:1014100035550AF08BFE38464FF490726F21FFF776
:1014200092FE524613A93846ADF84CB0ADF8508044
:101430000CF015FA0D233846A4F81831FFF7C0FE5A
:101440003946C4F808614846C4F81C51C4F8205114
:101450000AF06CFE4FF49072B8210498FFF773FE07
:10146000524613A90498ADF84CB0ADF850800CF07A
:10147000F6F90C230498A4F86031FFF7A1FEC4F834
:10148000506104994846C4F86451C4F868510AF0A0
:101490004DFE4FF490724FF482710598FFF753FEA2
:1014A000524613A90598ADF84CB0ADF850800CF039
:1014B000D6F90B230598A4F8A831FFF781FEC4F8EC
:1014C000986105994846C4F8AC51C4F8B0510AF087
:1014D0002DFE4FF4907240F24D110698FFF733FE47
:1014E000524613A90698ADF84CB0ADF850800CF0F8
:1014F000B6F94FF00A030698A4F8F031FFF760FE42
:10150000C4F8E06106994846C4F8F451C4F8F851AB
:101510000AF00CFE4FF4907240F297110798FFF713
:1015200012FE524613A90798ADF84CB0ADF85080A2
:101530000CF095F909230798A4F83832FFF740FE1C
:10154000C4F8286207994846C4F83C52C4F840528F
:101550000AF0ECFD4FF4907240F2E1110898FFF7A9
:10156000F2FD524613A90898ADF84CB0ADF8508082
:101570000CF075F908230898A4F88032FFF720FED4
:10158000C4F8706208994846C4F88452C4F8885276
:101590000AF0CCFD4FF4907240F22A210998FFF72F
:1015A000D2FD524613A90998ADF84CB0ADF8508061
:1015B0000CF055F907230998A4F8C832FFF700FE8C
:1015C000C4F8B86209994846C4F8CC52C4F8D0525D
:1015D0000AF0ACFD4FF490724FF41D710A98FFF7BA
:1015E000B2FD524613A90A98ADF84CB0ADF8508040
:1015F0000CF035F906230A98A4F81033FFF7E0FD44
:10160000C4F800630A994846C4F81453C4F8185340
:101610000AF08CFD4FF4907240F2BD210B98FFF759
:1016200092FD524613A90B98ADF84CB0ADF850801E
:101630000CF015F9052307E02091030844900308F6
:101640009F0F0008232324FF0B98A4F85833FFF7BB
:10165000B7FDC4F848630B994846C4F85C53C4F816
:1016600060530AF063FD40F29D124FF48C710C98A8
:10167000FFF769FD0223ADF84C3003934FF00303ED
:1016800013A952460C98ADF850300CF0E8F804223B
:101690000C98A4F8A023FFF793FD474AC4F8906381
:1016A000C4F8A8230C994846C4F8A4530AF03EFD98
:1016B000CA224FF4A7710298FFF745FD3F4BD4F8BB
:1016C000B023C4F8E0330EAEA4F8E4B33046D2F849
:1016D0008420029904F57B77904796E8070087E815
:1016E0000700374F04F589663A68039B2AB96021E1
:1016F000344B354A354836F03FFB354A1288022ACA
:1017000003D8344B304A6121F4E71946324B18684C
:1017100000F0B8FB314A03460A21304611F04FFA77
:10172000C4F8F86302980BF09DFF4FF003022C4EB3
:1017300051460298ADF8542014960BF0B3FF02996D
:1017400048460AF0F3FC3022D8210D98FFF7FBFC45
:101750001A4A3B68C4F83C54C4F82C24A4F830B4AA
:10176000C4F838B4C4F840B404F25C45002BBED0D1
:10177000174A1388002BC4D0174B5946186800F03D
:1017800081FB164A03460A21284611F018FA0D98E3
:10179000C4F844540BF066FF51460D981496ADF80A
:1017A00054800BF07FFF48460D990AF0BFFC20469D
:1017B00017B0BDE8F08F00BF4D4D4FFF0000FFFF99
:1017C000EC30082057900308B39103089990030860
:1017D000F0300820DA900308F8300820549003080D
:1017E000A48F030870477047704741607047704787
:1017F00001230372704770477047034610B4C468F2
:1018000041686210E40701EB02009B6848BF8A58F8
:101810005DF8044B48BFD358184743682BB1836821
:101820002BB9C06800F001007047184670470120CE
:10183000704710B504460C2134F0CEFE204610BD92
:1018400010B504464FF4AE7134F0C6FE204610BD0C
:1018500010B50446102134F0BFFE204610BD10B56F
:101860000DF000FFBDE810400368DB6B1847000077
:10187000F8B50446002517460E460DF0B5FF104B8F
:10188000C4F83C511C600F4BC4F8405123600E4B10
:10189000C4F84851C4F844310C4BC4F84C51186892
:1018A000C4F85051C4F85471C4F85861036829460B
:1018B0009B689847284600F0ABFA2046F8BD00BF69
:1018C000E83008200C920308F49103089C300820AB
:1018D000064BC0F84801C0F84C310023C0F8503125
:1018E00000F5A273C0F84031704700BF351A0008F8
:1018F0002DE9F047074690689946036888461B6AB9
:101900001546DDF820A0984740F28B43984205D851
:10191000A321424B424A434836F02EFA68680368D6
:101920001B6A98470F2803D83F4B3D4AA421F2E792
:10193000E86803681B6A98470B2803D83B4B384A72
:10194000A521E8E70DF08EFE04300DF0B0FED9F8C9
:10195000000010B10368DB689847D9F8000010B1A7
:1019600003681B689847386810B103685B6998473B
:10197000D8F8000010B103685B689847386810B168
:1019800003681B689847D8F8000010B103689B688B
:101990009847E868002103685B6A9847044620B1CD
:1019A000002343600372224B0360A8680021036890
:1019B0005B6A9847064608B1FFF71EF96868002180
:1019C00003685B6A9847054610B13146FFF7A4F8F3
:1019D000C9F80040C8F800503E60E5B12B1DCAF8B8
:1019E0000030C5F808A03368F5633046DB689847D7
:1019F0002B6828461B689847214630460FF024FE86
:101A0000236820461B699847236820465B699847EE
:101A10002846BDE8F0872B46E1E700BF7C9203082B
:101A2000919403080A9303084B930308EE93030869
:101A30006092030807B5D0F8583100F59E71009305
:101A4000D0F85421034B0448FFF752FF03B05DF870
:101A500004FB00BFDC300820D830082013B500227A
:101A600049B102AB019203F8052D0268946801AAFE
:101A7000A04702B010BD0846FBE7C0897047008A46
:101A80007047C088704780887047807A00F07F0078
:101A90007047807AC0097047002070479FED010AA7
:101AA000704700BF00000000406A7047806A7047BE
:101AB00070478B88C069DB0A0A6850F8230010441D
:101AC000704710B5C2B1137BB3B1547BD27A2402F4
:101AD00004F4E0641443026A98B202EB84021388AF
:101AE0008B4202D192F9020010BD05D8013880B2B4
:101AF00004320028F3D1F7E70020F5E710B50446DB
:101B00002C2134F069FD204610BD000030B504469C
:101B10008BB0BDF860500895BDF85C5007959DF8F6
:101B2000505006959DF84C5005959DF848500495E9
:101B30009DF8445003959DF8405002959DF83C5007
:101B40000195BDF8385000950FF0D8F92046064BA6
:101B50002360159BE361169B2362199B63621A9BAA
:101B6000A3620BB030BD00BFA09503087047000012
:101B700030B5124D8FB02B6813F001031BD13F22FB
:101B800009920F4A012408920E4ACDE90B33CDE9A0
:101B900006320A9305930422CDE901330A23CDE9E5
:101BA00003240093224608490848FFF7AFFF08487E
:101BB0002C6036F0FFF805480FB030BD2433062006
:101BC000B0E30408ACE3040804F803082833062053
:101BD0006D1B00087047000030B5134C8FB02368B0
:101BE00013F001031CD13F220992104ACDE90B33B7
:101BF00008920F4A0A93CDE9063205930422012583
:101C0000CDE901336423CDE9032500931B2277231B
:101C100008490948FFF77AFF0848256036F0CAF8F6
:101C200005480FB030BD00BF5433062028E2040839
:101C3000B4E304082CF8030858330620D51B000829
:101C400010B5002404600C6014601C6010BD704767
:101C500030B5134D8FB02B6813F001031CD13F2218
:101C60000992104A012408920F4ACDE90B330792DA
:101C700004220A93CDE90232CDE9053401932823E9
:101C8000049400932A22302308490948FFF73EFFB5
:101C900008482C6036F08EF805480FB030BD00BF04
:101CA00084330620D8E20408B8E30408A8F903083E
:101CB000883306204F1C0008704710B504460421E5
:101CC00034F08AFC204610BD012908B508D003D3A2
:101CD000022909D0002002E000F012F8006808BDD7
:101CE00000F00EF84068FAE700F00AF88068F6E7BE
:101CF0000048704714960308042070470F2070476F
:101D000000487047B433062010B5FFF765FF044C58
:101D10002060FFF79DFF6060FFF72AFFA06010BD05
:101D2000B433062000207047002070470EB403B57E
:101D300003AB53F8042B002101930EF0DFFB02B03C
:101D40005DF804EB03B070470CB407B504AB53F86F
:101D5000042B01930EF0D2FB03B05DF804EB02B04C
:101D60007047000010B5436C044673B3038F2BB962
:101D7000C521184B184A194835F0FEFFC38E00EBF9
:101D800043035B8C0BB310F072F9238F012B03D844
:101D9000134B144ACB21EEE7E28E40F63F10531C62
:101DA0009BB21946092B88BFA3F10A0104EB41013C
:101DB000498C814209D10A2B28BF002304EB42023F
:101DC000508C04EB4303588451842046BDE81040F6
:101DD00010F050B864960308919703086D960308B5
:101DE000B1960308BF96030810F00BB810B586B083
:101DF00002AC84E806001A460AAB05930193099BDE
:101E000021460093089B0CF0CBFF06B010BD0000EC
:101E100038B5D8B9114B12481B681249BBB11A68C2
:101E20009C681A4402605A681C441A440A606CB1E7
:101E300000220D4B1A80FFF763FF0546FFF75EFF98
:101E40000A4B1C600A4B1D600A4B188038BD0A4BB8
:101E500003600A4B0B600A4B1C68E8E7C03306209E
:101E6000C4330620C8330620CC330620EC300820CB
:101E7000F4300820F03008201CE40408BCE3040817
:101E800018E40408044B1B6853F82100034B1B683B
:101E900003EB4000704700BFC8330620C433062060
:101EA000012380F8781080F879307047002070475F
:101EB0004164003118BF0121014B1970704700BF08
:101EC0009B30082000207047836B0BB108461847F1
:101ED00070474FF6FF707047406803689B6918476A
:101EE00070477047704700009022044B83F87623B8
:101EF00083F8872383F88423704700BF00E100E064
:101F0000094A0A49D3680A48C3F30A03013B9BB252
:101F10000B801169C1F30A01013901801364536B0D
:101F200043F0010353637047006801400634062004
:101F300004340620014B986A704700BF8468014052
:101F40000122024B996243F8602C7047846801407B
:101F50007047242303FB0101002381F824307047DC
:101F600080F82C10704710B50446302134F034FB53
:101F7000204610BD38B504464FF4005111F068FA00
:101F800023685D6E0DF06EFB01462046A84723686E
:101F9000064AD3F88850064900232046A8476268BD
:101FA000044B5A64044A536038BD00BF70131420B8
:101FB000705B082008340620D433062010B531B9F0
:101FC0000A4B0B4A40F2D2210A4835F0D5FEC0E94F
:101FD0000F12003218BF012207490A700268194621
:101FE000BDE81040D2F88C20104700BF629903086A
:101FF000F3A603089A9903089A30082008B5094BFC
:102000001B888B4203D8084B1B88934205D9074B8A
:10201000074A9E21074835F0AFFE074B1980074B52
:102020001A8008BD9030082092300820FF980308DD
:10203000B0A603089A990308963008209830082023
:1020400008B531B1044B054A4FF49171044835F09D
:1020500093FE90F8250008BD7C980308809C030837
:102060009098030810B531B1064B074A4FF48E71B2
:10207000064835F081FE40681146BDE8104003680F
:102080001B6B18477C980308CBA2030890980308A1
:1020900008B531B1044B054A4FF48A71044835F054
:1020A0006BFEC06808BD00BF7C98030812A403083B
:1020B0009098030870B504460D4629B10D4B0E4AA1
:1020C0005E210E4835F058FE406811460368DB6813
:1020D0009847606803689B6A98472368E06084F8C3
:1020E00028505E6A29462B462046B446BDE870401B
:1020F000012260477C9803086CA0030890980308AD
:102100002DE9F041044617460D4629B10E4B0F4A02
:102110004E210F4835F030FE406839460268966817
:102120001A46B047606803689B6A98472368E06076
:1021300084F828505E6A29462B462046B446BDE8FE
:10214000F0410122604700BF7C980308F89E030815
:102150009098030808B529B1054B064A4021064866
:1021600035F00AFEC0E905328160016108BD00BF9B
:102170007C980308A39D03089098030811F0A6B863
:1021800011F0D8B80AF06ABA0AF0D9BB10B5044603
:102190000BF00CF823682046BDE81040D3F8AC30B3
:1021A00018470AF08DBB90F87A301BB1406803687D
:1021B0001B6818471846704710B590F8784090F89B
:1021C00034100C4B8C421A7809D03AB90A490B4AA0
:1021D00008881488108001220C801A7010BD002A13
:1021E000FCD0064A0449148808880C80108000221C
:1021F000F3E700BF94300820923008209030082088
:1022000070B5044629B1274B274A6E21274835F07F
:10221000B3FD052A2BD8DFE802F003252B30373F2A
:10222000406803681B69984708B3012384F8253088
:10223000002384F82630A360236194F82730B3B9D3
:102240006468236820469B6A984723680546DB6AD2
:102250002046984785420AD123682046BDE8704051
:102260009B691847002380F8253080F8263070BD20
:10227000C3610023A3602361F9E7C361012380F8F0
:10228000263080F82830F4E70023012280F825303A
:1022900080F82630C261EDE7003318BF012380F8D3
:1022A0002730E4E77C980308D9990308909803083D
:1022B0002DE9F34105461646984629B1164B174AB3
:1022C000E921174835F058FD406803681B699847B5
:1022D000F8B1144C012120680AF0CAFF07464146B4
:1022E00068460EF0D1FA104BBDF902101B88BDF9FB
:1022F0000020686803FB0122016807EB4202CD69F8
:102300003146A84720680368DB6A02B0BDE8F041A7
:10231000184702B0BDE8F0817C98030860A5030867
:10232000909803089C3008209630082008B590F853
:10233000243033B1084B094A40F26B11084835F09C
:102340001BFD012280F8242081F83430CB860B87D6
:102350000B63184608BD00BFCF980308ABA1030864
:1023600090980308F8B5044629B13F4B3F4AA9218C
:102370003F4835F001FD90F825301BB990F8263024
:10238000002B6FD000273B4B1B6893F86B10236921
:1023900084F826700B44236194F82830002B54D025
:1023A000136810465B6965689847E6692B682EB329
:1023B00031465B6A284698472B682846DB6AE669FF
:1023C000984786422CBF00260126E7612B682846E5
:1023D0009B6A9847A368E0600133A360D4E90432A4
:1023E000A0695A43A36843439A4239D994F82C1000
:1023F00069BB012184F828103046F8BD226A62B119
:10240000D3E9097328469847216A01442846B8470A
:10241000A368226A26621344A36094F827602B689D
:1024200026B19B69284698470646CFE79B6A28460F
:1024300098472B680746DB6A28469847874201D2AF
:102440002B68EEE784F82560C0E70126C6E7D31ABB
:10245000B3FBF0F30BB92362CBE7013B2362C9E77F
:102460000021C7E70126C7E77C980308469B0308BD
:10247000909803089C3008204FF48002034BDA60E8
:1024800080221A6110221A61704700BF00E100E04B
:102490004FF480020A4BC3F88C20BFF34F8FBFF379
:1024A0006F8F8022C3F89020BFF34F8FBFF36F8FE1
:1024B0001022C3F89020BFF34F8FBFF36F8F704788
:1024C00000E100E008B5054B1A68D20704D40122E8
:1024D00003481A6035F06EFC024808BDD033062070
:1024E000E51E00080400002010B5144C236823B337
:1024F000134B144A1B6C11888B4213D1124B198851
:1025000006F096FC226892F86A30013382F86A304D
:1025100000F0CEFB20680AF049FEBDE81040002024
:1025200001F09ABB06F084FC206803681B6A984798
:10253000BDE81040002001F0A9BB10BD9C30082070
:1025400000680140063406200434062008B50E4811
:1025500000F05AFD0D4B0E4A01211A600022C3E91A
:102560000222C3E90422C3E9062283F8242083F867
:10257000252083F8262083F8271083F8282083F865
:102580002C105A6008BD00BF08340620D433062042
:102590004498030803685B6C184701207047FEE706
:1025A000104B82B0D3F8882042F48022C3F88820F0
:1025B000D3F8882002F480220192019A1A6E42F424
:1025C00080221A661A6E22F480221A66064B074A87
:1025D0001A62074A5A624FF48002064BDA6002B070
:1025E000704700BF000C0246B837082001260008DB
:1025F0009F25000800E100E040F2EF307047000046
:10260000024B1B68586803685B6918479C300820B8
:1026100008B50B280BD8DFE800F01206100A0A0AEA
:102620000A0808080808012008BD0520FCE7054B3A
:10263000054A7021054835F09FFB0020F4E7022091
:10264000F2E700BF5BA703082EA8030876A70308DC
:1026500008B50A2809D8DFE800F010060E080808B7
:10266000080606060600012008BD054B054A912113
:10267000054835F081FB0020F6E70220F4E700BFB3
:102680005BA7030878A8030876A70308F8B50C46EB
:10269000487FFFF7BDFFA77F05463846FFF7B8FF25
:1026A00006463846FFF7D4FFA38A628BD21A494BFD
:1026B0001A64A18A628B521A9A61A18A228B521AD9
:1026C0001A615863A18AE28A42EA01425A64226985
:1026D000DA636268DA602268402A70D010D8042A6F
:1026E0003BD0202A6BD0237F45EA0365394B45F464
:1026F0000035DD61617FA27F914267D0364A4BE0B1
:10270000B2F5807F1BD0B2F5007F23D0802AEAD1BA
:10271000A068021DDA62227F45EA026545F40035B1
:10272000DD615E6222695A610278EAB1012A35D020
:102730002A4B2B4A40F21B112A4835F01DFB217F02
:10274000294A42EA0162DA61E2681A625E6222693B
:102750005A6120E0217F254AF3E7227F45EA02659E
:1027600045F40035DD61F1E7D9694288501E21F456
:102770007F42012122F0100242EA0022DA61154B69
:10278000DA6942F02002DA61DA699206FCD410229A
:102790009A600029B2D0164A1A60F8BDDA694088FA
:1027A00022F47F42217F22F01002013842F0100211
:1027B000FF3942EA002218BF0121DA61DFE7237FF7
:1027C00045EA036545F40035024BCBE742F201329E
:1027D000E2E700BF00B002400123010041A7030867
:1027E000F0A7030876A703080A0002000900020008
:1027F0000123020010B5887F0C46FFF729FF1C4B10
:102800005863A18AE28A42EA01425A642269DA6381
:10281000628BA18A521A1A642268082A16D1A18AE8
:10282000628B521A9A61A18A628B521A1A6158629B
:10283000217F104A42EA0162DA61E2681A62226983
:102840005A612269DA600C4A1A6010BD0022D86110
:102850001A61E1680A0A480902F4784200F4FC604F
:102860000243C1F3C4010A439A63044AECE700BF80
:1028700000B002400900010001230200012303000F
:102880004FF48002044B0360044BC3F88C20BFF369
:102890004F8FBFF36F8F7047A8A7030800E100E0D8
:1028A00010B50446FFF7ECFF204640F6A45133F084
:1028B00093FE204610BD000001231C22084903722C
:1028C0000868084B02FB0030007E20B1086802FB5C
:1028D000003001F0B7B8086802FB003001F070B8B2
:1028E000605206201000002010B590F8A03D04466C
:1028F000ABB903689B6A9847174B1A681C2353436C
:10290000164AD35C012B09D1154A126832B9227AD2
:1029100022B984F8A03D2046FFF7CEFF10BD037A10
:102920004BB1002303721C200B4B1A680B4B00FBAE
:10293000023001F009F9606803681B6898470028B5
:10294000ECD1637A002BE9D0236884F8A00D5B6A90
:102950002046BDE8104018476052062010000020B5
:102960005C52062010B50446406803681B6898470F
:1029700058B9637A4BB1237A3BB984F8A03D2368F8
:102980002046BDE810405B6A1847084B1A681C23B4
:102990005343074AD35C012B06D1227A22B984F82B
:1029A000A03D2046FFF788FF10BD00BF6052062003
:1029B0001000002070B5054600262C460A4B0C304E
:1029C00068602E726E7244F8203B602221460AF045
:1029D0004DFD05F55A63E6602434A342FBD185F82A
:1029E000A06D284670BD00BFA8A70308034B1A6856
:1029F000D207FCD423229A60704700BF00B0024087
:102A000030B50E4C2568ED07FCD42325A5600225C2
:102A1000120442F00102FF2B65636264E063E1602F
:102A200008D01B0643F00213E361054B6562606149
:102A3000236030BD034BE3610123F9E700B002409E
:102A400001000200020002FF30B50B4C2568ED07C3
:102A5000FCD42325A560022512041B0643F4003391
:102A600042F0010265636264E063E160E361034B8D
:102A700065626061236030BD00B002400100020069
:102A800030B50F4C2568ED07FCD42325A560012542
:102A900009042943FF2B65636164E0630CD0094995
:102AA000656241EA0363E36122F07F42064B2262E2
:102AB0006061E060236030BDE561044BA263F9E72B
:102AC00000B0024009000100010002000100030003
:102AD00030B50D4C2568ED07FCD42325A5600125F4
:102AE00012042A43FF2B65636264E063E16007D050
:102AF000064A42EA0363E36165626061226030BDB9
:102B0000034BE3612560FAE700B0024001000200D8
:102B1000010002FF30B50B4C2568ED07FCD42325DE
:102B2000A560012512041B0643F400332A436563A4
:102B30006264E063E160E361034B656260612360AE
:102B400030BD00BF00B002400100020070B5104C63
:102B5000256815F00105FBD12326090441F0010188
:102B6000FF2BA66065636164E0630CD00949656270
:102B700041EA0363E36122F07F42074B2262606116
:102B8000E060236070BDE561044BA263F9E700BF1C
:102B900000B0024009000100010002000100030032
:102BA00070B50F4C256815F00105FBD12326FF2BCE
:102BB00008BF02234FEA024242F00102A66018BF9A
:102BC0001B0665636264074A18BF43F00213E063A3
:102BD000E16017BFE361E36165626061226070BD1F
:102BE00000B002400100020070B50F4C256815F0DE
:102BF0000105FBD12326120442F00102A6606563A1
:102C000062640022FF2B1CBF1B0643F40033E06309
:102C1000E16018BFE361044B08BFE5615A62034AF3
:102C200058611A6070BD00BF00B002400100020090
:102C3000012108B50022084608F027FF0A4B18605A
:102C400028B92821094B0A4A0A4835F095F800228C
:102C50000421012008F0C0FF074B186018B9074B8A
:102C6000034A2C21F0E708BD54340620C3A803080A
:102C700077A903080CA903085034062035A90308D6
:102C8000024B4FF0FF31186808F04EBF5434062055
:102C9000014B186808F076BF54340620024B00211F
:102CA000186808F041BF00BF54340620FFF7F0BF9A
:102CB000002303481A460349006808F0CDBF00BF4F
:102CC0005034062008000020002313B5074C1A4694
:102CD00001A9206808F0F4FF4FF0FF33002201A99A
:102CE000206808F0EDFF02B010BD00BF5034062090
:102CF000012070470C2070470C2303FB01000830B3
:102D000070470C2303FB0100083070470120704717
:102D100040F28C40704740F28C4303FB01000830C6
:102D2000704740F28C4303FB0100083070470120DC
:102D300070471020704700EB01100830704700EB1F
:102D40000110083070470846FEF7C2BD10B50446B2
:102D5000024B036009F0D4F9204610BD18AA0308FD
:102D600010B50446FFF7F2FF2046142133F034FC7F
:102D7000204610BD10B50446024B036009F0C0F9AF
:102D8000204610BDE4A9030810B50446FFF7F2FF82
:102D9000204640F2944133F01FFC204610BD000055
:102DA00010B50446024B036009F0AAF9204610BD95
:102DB000B0A9030810B50446FFF7F2FF204618211A
:102DC00033F00AFC204610BD10B50446074B0360E3
:102DD00000F59860FFF7BAFF04F12C00FFF7CAFF77
:102DE00004F11400FFF7DCFF204610BD4CAA0308D5
:102DF00008B50248FFF7E8FF08BD00BF5C340620B5
:102E000010B50446FFF7E0FF204640F2346133F08E
:102E1000E3FB204610BD00002DE9F341FEF768FFFB
:102E200000240546FEF768FF234601462246284651
:102E300000940FF069FF254D254B264A20461A6065
:102E4000FEF7E6FF2146284619F096F9224B234E5D
:102E5000AB6023480FF0C0FE3368DB0730D4214C51
:102E6000214B04F59B6504F1140004F12C0804F5D2
:102E700098676060C4F80880E7602561236009F006
:102E800041F91A4B4046636109F03CF9184B38464A
:102E9000E36209F037F9174B04F2D440C4F8C034A8
:102EA000FDF7B8FF224604F2D4412846FDF7E6FFBD
:102EB0002846FEF70DFD01230F48336034F07AFFFA
:102EC0000E4802B0BDE8F04100F07CBE0C4906207F
:102ED000F830082008490620903A06205834062089
:102EE0000C0000205C3406204CAA0308B0A903089B
:102EF000E4A9030818AA0308F12D00085448062085
:102F000008B523F0CFFF4FF4F0714FF44870012261
:102F10002CF0EEFBBDE808400121084630F0A4BAD1
:102F2000014809F0FEBB00BF54480620F7B5134D19
:102F3000134B144F144E28463B60FFF73BFD3046C1
:102F400019F00CF911480DF0B9FC4FF448734FF427
:102F5000F0720F4CCDE9003229463B4632462046FE
:102F600010F00EFA0B4B23600023C4F8AC30C4F809
:102F7000B030094BC4F8A83003B0F0BDB03A062019
:102F8000F8AD0308AC3A06200C490620903A06201A
:102F90005448062020AD030810AE03080148FFF78F
:102FA0006FBC00BFB03A06204069704790F84000FF
:102FB0007047036B23B9C06A003018BF0120704707
:102FC0000120704780687047704710B50C46043088
:102FD0000FC884E80F0010BD7047000008B5034A11
:102FE000034B40F2F311034834F0C6FE32AC030841
:102FF000D8B20308A1AA030810B50446482133F04B
:10300000EBFA204610BD000000220E4B10B5114611
:1030100004460360C0E90522C0E90722C0E909228D
:10302000C0E90B22C0E90D22C26380F84020C0E94C
:103030000322C0E90122012008F027FD024B18609D
:10304000204610BD68AB0308D4EA062030B415460C
:10305000026B42B1C46B406B0C1B2044294630BC50
:103060001A4635F0E1BAC06A0844F7E710B5036BB9
:1030700073B1C36B426BC91A531898785C7800041B
:10308000525C40EA0420DB78104340EA036010BD44
:10309000C26A5318525C59789878000440EA0120BB
:1030A000F1E7036B43B1C36BC91A436B5A185278EB
:1030B000585C40EA02207047C36A5A18585C53783B
:1030C00040EA03207047000070B50446006B0D46CF
:1030D0001646D8B1A36B934208D209230D4A84F84F
:1030E0004030AF210C4B0D4834F046FE0368DB68DE
:1030F0009847206B32460368616B1B69984710B98B
:103100000D2384F84030606BE56370BDE06A0844CD
:10311000FBE700BFBAAC03084AAB0308A1AA030847
:103120002DE9F041436904462BB9214B214AF52191
:10313000214834F021FE08228169FFF7C5FFA1690B
:1031400020460431FFF792FF43F2300646F2643521
:10315000A169A36A084400F108029A4220D2636977
:103160000930013320F0010163610822A16120468A
:10317000FFF7AAFFA1692046FFF793FFA1698046E8
:1031800002312046FFF78DFFA16907460431204632
:10319000FFF76CFFB045DBD1AF42D9D1012004E08D
:1031A000012300206361236AA361BDE8F08100BFB1
:1031B00058AA0308A4AB0308A1AA030870B50368C2
:1031C000002914BF0D460125DB6A04469847A84232
:1031D00004D223682046DB6A98470546E66905F174
:1031E0008053013B06EB0316102206F1080120462E
:1031F000FFF76AFF06F110012046FFF737FF236A49
:10320000043B0344C4E9055370BD000000212DE9CF
:10321000F0410446816180F840104822FFF754FFD6
:10322000A5690423634A29462046FFF70FFF48B1EA
:10323000032340F23D1184F840305F4A5F4B604801
:1032400034F09AFD05F10801A16104235D4A20468E
:10325000FFF7FCFE38B10423574A84F8403040F2AF
:103260004511594BEBE705F10C01A1610423574AC5
:103270002046FFF7EBFE074638B105234E4A84F897
:1032800040304FF4A671524BD9E705F110012046AA
:10329000FFF7ECFEA669054620B94E4B464A4FF4AF
:1032A000A971CCE706F1080804234B4A41462046A1
:1032B000FFF7CCFE002846D0062384F840300423D4
:1032C000464A06F10C012046FFF7C0FE00283CD01C
:1032D000072384F8403045440C2229462046FFF756
:1032E000F3FE3F4F05F1080604233A4631462046D7
:1032F000FFF7ACFE94F84030002845D1002B53D1A5
:1033000005F10C030435A36129462046FFF7AEFE04
:103310003044606229462046FFF7A8FE0644042296
:1033200031462046FFF7D0FE04232E4A3146204680
:10333000FFF78CFE00283BD101236361A369E6619E
:103340002362BDE8F0810127B9E7002FC3D006F161
:1033500014012046FFF78AFE4FF47A73B0FBF3F0B6
:1033600006F1240160602046FFF780FE06F134017B
:10337000A0602046FFF77AFE06F13801E0602046A3
:10338000FFF774FE2061A6E773B9A36AAB42B7D911
:10339000291D2046FFF76AFE083005440C22294605
:1033A0002046FFF791FE9DE70A2384F84030C8E7E6
:1033B0000B23FAE7D4AA03088DAC0308D9AA0308A3
:1033C000A1AA0308F2AA0308F7AA03080FAB03088F
:1033D00014AB03082AAB030836AB03083BAB030866
:1033E00040AB030845AB0308C0E90A210022026391
:1033F000FFF70CBF002310B50163C3620B680446DE
:103400009B6808469847A0622046BDE81040FFF739
:10341000FDBE000073B51E4C1E4D236000232B60C3
:103420001D4D1E4C29601E4D23602A6001251D4C38
:103430001D4A23601D4C236013601D4A13601D4A02
:103440001370C2E90233C2E904331376937613771B
:10345000C2E90933C2E90B3382F8343082F83530DF
:1034600082F83630144B55765E6B06B115761C2506
:10347000246805FB0422DC684FF4C07363430093A7
:1034800053684FF4504204F0DDFB002002B070BDE1
:10349000B4EA0620C0EA0620C8EA0620C4EA0620EC
:1034A000CCEA06206052062064520620D0EA0620AC
:1034B000A8EA06201000002068EA06204B68012BCD
:1034C0000ED1CB681A071EBF23F00F031033CB6059
:1034D0008B68180703D023F00F0310338B607047FD
:1034E000022B0DD1CB681A0703D023F00F03103342
:1034F000CB608B685A07F2D023F007030833EDE75F
:10350000002BECD1CB685807F3D023F00703083326
:10351000EEE7000030B40B4B1A680A441A600A4BFD
:103520001B689A420CD2094C9A1A2568B2F5504F82
:103530002944216028BF4FF4504230BC04F0F2BB54
:1035400030BC7047C0EA0620CCEA0620C8EA062054
:103550002DE9F843474CDFF838E12368DFF834C140
:10356000103323601C23DEF80010DFF82C9103FBDE
:1035700001C1D9F80060404F4E6140493F680D6974
:1035800080467D4306EB0516C9F800604D69266844
:103590002746B542744665460E460CD3CA684FF4BA
:1035A000C071DEF800404A4303FB04C35968BDE81C
:1035B000F84304F0BABB0120DEF8001059430CF8C0
:1035C0000100DEF8001003FB01C18A600021DEF873
:1035D000002003FB02C21161326B22B1DEF8002031
:1035E00003FB02C318763B68B2699A4225D91C22B4
:1035F000236802FB035300229A7623680133236079
:103600002368012B4FF01C0388BF226022685343BC
:10361000EB5C33B10221404604F051FB0122184B10
:103620001A601C212368F26801FB03534FF4C07138
:1036300040464A43596804F078FB3B68B2699A42B5
:103640000BD81C222368022102FB035501230D4ADB
:10365000AB764046136004F032FB0B4B1B681B7AC1
:103660002BB90A4B1868BDE8F84308F08BBABDE8DF
:10367000F88300BFA8EA0620B0EA062068EA062020
:10368000C4EA0620BCEA0620ACEA0620D4EA0620FA
:10369000D0EA062010000020B4EA062072B6FEE749
:1036A0000122014B1A607047BCEA062038B51B4D59
:1036B00004462A6842B11A4B1B682BB104F026FF5E
:1036C000042827D0012038BD164B1868037A6BB93F
:1036D000154B1A681C235343144AD35C012B05D1A4
:1036E0000F4B1B6813B903681B699847104A13688E
:1036F000012B0DD10F4B19681C234B430B49CB5C9D
:1037000033B92B6823B902212046136004F0A4FDCD
:103710000220D8E7204604F00BFBD3E7BCEA0620E2
:103720005C520620ACEA0620605206201000002001
:10373000C4EA0620D0EA062070B50546002A36D035
:10374000002B34D002241A480461EC6826071CBF01
:1037500024F00F04103404604FF4C864446004681B
:10376000144E2409C4602C6914F00F0418BFC4F16E
:1037700010048460104C0F48FFF74CFE6A6C25461D
:103780000E4B1A603046FFF791FF20602368022B32
:1037900005D10B4B4FF0FF31186808F0C5F92B68C5
:1037A000012BEFD10023074A1360074A136070BD55
:1037B00068EA0620D4360820B8EA0620ACEA0620DB
:1037C000D4EA0620BCEA06205C5206202DE9FF4719
:1037D0009846436904460E4617462BB92A4B2B4A96
:1037E000C1212B4834F0C8FA08228169FFF76CFC2C
:1037F000A1692046FFF755FCA169824602312046A7
:10380000FFF74FFCA169814604312046FFF72EFCEB
:10381000A169A36A083142189A42054626D243F2AA
:1038200030039A4516D146F26433994512D188B1D6
:103830000246A1612046FFF747FC0C9B0146CDE9FB
:103840000183009733462A462046FFF775FF6369D8
:1038500001336361A3692B448DB1A361A369626ADB
:10386000013323F001039342A3610AD10120236AAB
:103870006061A36180F0010004B0BDE8F087083307
:10388000EBE70020F6E700BF58AA0308D7AB030810
:10389000A1AA03082DE9F843044688461746816922
:1038A00008221E46FFF710FCA16920460431FFF7ED
:1038B000DDFBA1690546024608312046FFF704FCFE
:1038C0000222374B0146E0681A6102071EBF20F052
:1038D0000F0210321A604FF4C86208BF18605A60B5
:1038E0001A68B8F902901209DA60B8F80620B8F937
:1038F00000E04A440FFA82FC2269C3F81490624542
:1039000028BF624694469A61B8F804204FEA1E1810
:10391000724412B2824228BF024602F10F001A62BC
:10392000000912F00F02986218BFC2F11002A0EB5A
:103930000800D8629A630EF00F001CF00F021863A3
:1039400018BFC2F1100209F00F005863DA63C3F820
:103950001CE02A46C3F8248012483B46FFF75AFD74
:10396000626C114C114B25461A60114B1E600D4EB6
:103970003046FFF79BFE20602368022B05D10D4BDC
:103980004FF0FF31186808F0CFF828680128EFD110
:103990000023094A1360094A1360BDE8F88300BF99
:1039A00068EA0620D4360820B8EA0620ACEA0620E9
:1039B000B0EA0620D4EA0620BCEA06205C520620C3
:1039C000F0B51C490369CD6A4FF4C077EC1A056164
:1039D00002258A6BC2EB04124C6A12F00F062344D4
:1039E0000C6907FB03F74FEA041403FB04F4124BC2
:1039F00018BFC6F110065D6390F81AC01504BCF13B
:103A0000000F13D0C96BC1F11001294359644169FA
:103A1000C2F548720C44DC631A64084A1E61DA611C
:103A200042683A44DA60064A1A60F0BD45F0100573
:103A30005D64ECE768EA062000B002400B0009FF75
:103A4000012301002DE9F04F01698BB00446374A8C
:103A5000002966D1136BD06A677E01388142D2F8A3
:103A60003490A07E0CBFD2F838804FF00008002FB1
:103A700014BFCE464FF0000E002854D0D2F83CC000
:103A80004FF0320A4FF4C075D2F810B0506A0EFBF6
:103A90000BF60AFB06FA084403FB0BF245430BFB4B
:103AA00000A0013102EB0010216102EB061200269A
:103AB000B9F1000F00D007B926760121C3F1100338
:103AC000A3EB0803ADF81830CEF11003A3EB0C0301
:103AD000ADF81A30164B174F079363693A441844F0
:103AE000154B059018680292049601918DF821609B
:103AF0008DF82260036801A95B68984702220F4B8A
:103B00005A634FF010125A640D4ADF631E641E613F
:103B1000DA61626815440B4ADD601A600BB0BDE8DB
:103B2000F08F002397E78446AAE700BF68EA0620E3
:103B30001000200368520620ACEA062000B00240C4
:103B40000B0009FF012301000D4B0269DB6A9A4259
:103B500015D100230B4A0370116883600131116095
:103B6000116803760129437688BF1360837E13B101
:103B70000122054B1A60054B186808F003B870471E
:103B800068EA0620605206205C520620D4EA06202D
:103B9000704770477047000010B505480C464FF459
:103BA000005103F085FC08B10120207010BD00BF5A
:103BB0000008024210B50446082132F00DFD2046EF
:103BC00010BD704738B5044604F1A805FEF7D2F9D8
:103BD000284600F007F9012384F87030014B256175
:103BE000636138BDD8EA0620FEF7A4B9FEF7A8B98C
:103BF000FEF7C8BAFEF7C8BAFEF776B9FEF73CBCC6
:103C0000FEF746BCFEF77CB9FEF7B8BAFEF7B8BAC5
:103C100008F01EBD10B50446B42132F0DDFC20468C
:103C200010BD000008B5054B01461B6800B101211D
:103C3000184609F0D5FA012008BD00BF9C300820C5
:103C40000248034B0360FFF7A5BF00BFD8EA062078
:103C500004AD030870470000032814D8DFE800F023
:103C600002070B0F01221146074803F027BC01226F
:103C70004FF48061F8E701224FF40061F4E701227C
:103C80004FF48051F0E7704700080242032814D82F
:103C9000DFE800F002070B0F00220121074803F0C4
:103CA0000DBC00224FF48061F8E700224FF4006160
:103CB000F4E700224FF48051F0E770470008024219
:103CC000032810D8DFE800F00206090C012106489D
:103CD00003F0F9BB4FF48061F9E74FF40061F6E7B8
:103CE0004FF48051F3E77047000802427047704775
:103CF00010B50446042132F06FFC204610BD0000D0
:103D00002DE9F04F17464FF0000A4FF480322C4B4C
:103D100089B08DF817A08946C3F88020BFF34F8F74
:103D2000BFF36F8FDFF8A08098F8003003F0FF0436
:103D3000002B3BD04FF0010B4FF0FF3506AE0223B6
:103D400048F24E12BA21CDE901B500961D4802F0A5
:103D500031FD9DF818400DF117030093CDE901B531
:103D6000022348F24E12BA21164804F00F0402F062
:103D700047FC88F800A0CCB1042348F25012CDE9EA
:103D8000006302950223BA210E4802F013FD9DF84C
:103D900019209DF8183003EB0223C9F800309DF874
:103DA0001B209DF81A3003EB02233B604FF4803256
:103DB000034B1A60201C18BF012009B0BDE8F08F2A
:103DC00000E100E034350820E0EA0620202802BFA8
:103DD0000122014B1A707047E0EA062040687047E4
:103DE00041607047094A136843F080731360A2F57D
:103DF0004E424C3A1168064B0B431360A2F57B62AE
:103E0000136843F001031360704700BFFCED00E04E
:103E100055CEACC5521A02EB5302B2FBF3F0704719
:103E2000014B1868704700BF041000E0704710B5E0
:103E300004460C2132F0D0FB204610BD10B50368BB
:103E400004461B6931B19847A26863689B1A1844FD
:103E5000606010BD9847A060FBE7000001220E489B
:103E6000D0F8883043F47003C0F888300B4B1A60E8
:103E70000022DA611A625A62196821F0A85121F40D
:103E8000102119609A62196821F4802119601A655D
:103E90004FF000638360704700ED00E0000C0246C5
:103EA00008B5012007F0E2FDFBE700000149002012
:103EB00007F034B9253C000808B5074A0021074837
:103EC00007F088FD064B074A18600021064807F0F6
:103ED00081FD064B186008BDACAE0308A13E00088A
:103EE000B034082088AE0308979C0008B43408203A
:103EF00070B51F4B88B0D3F89C20694642F0100281
:103F0000C3F89C20D3F89C30064603F010030193BD
:103F100002A8184C019B01F009FD01F0F7FC164BBB
:103F2000236040F2E733E360144BB0FBF3F000236F
:103F30000138606020462361A36004F0A9FD0546B6
:103F400068B9204604F0B8FB054640B90F2E0CD8DE
:103F500002463146312003F0B9F8094B1E6031208A
:103F600003F0E8F8284608B070BD0125F7E700BF68
:103F7000000C0246B83408200010004040420F00F8
:103F80005000002030B59FB06022002106A833F019
:103F90007CFF18220021684633F077FF4FF4403051
:103FA00000F072FD08B172B6FEE701224FF48033D3
:103FB0000325CDE906230424022350221790CDE9DE
:103FC0001C0006A8CDE914351694CDE91823CDE9D7
:103FD0001A3301F01FF808B172B6FEE71F23CDE9CE
:103FE0000200CDE9040021466846CDE9003500F025
:103FF000A9FE08B172B6FEE71FB030BD80B598B01B
:1040000004F05CFFFFF7BEFF00F0B2FD022000F0FD
:1040100083FD054608B172B6FEE74FF01409C04CA7
:1040200001464A460BA833F030FFD4F88C30012605
:1040300043F01003C4F88C30D4F88C304FF01008E3
:1040400003F010030493049BD4F88C304FF0200A43
:1040500043F00403C4F88C30D4F88C30012203F010
:1040600004030593059BD4F88C30502143F02003C2
:10407000C4F88C30D4F88C30AA4803F0200306939F
:10408000069BD4F88C30022743F08003C4F88C30B0
:10409000D4F88C3003F080030793079BD4F88C305E
:1040A00043F00203C4F88C30D4F88C3003F00203E0
:1040B0000893089BD4F88C3043F00803C4F88C3084
:1040C000D4F88C3003F008030993099BD4F88C30A2
:1040D00043F48073C4F88C30D4F88C3003F48073CC
:1040E0000A930A9B03F0EAF92A4641F601418E48F9
:1040F00003F0E4F9012249468C4803F0DFF90BA9EB
:104100008848CDE90B86CDE90D5503F0D9F8884BE9
:104110000BA98448CDE90BA30D964FF0110A03F0CB
:10412000CFF840230BA97F48CDE90B3ACDE90D55D7
:1041300003F0C6F84FF400530BA97B48CDE90B35CB
:104140000D9703F0BDF841F601430BA97648CDE980
:104150000B36CDE90D5603F0B3F80BA97348CDE942
:104160000B9ACDE90D5603F0ABF82A4605214046DF
:1041700002F0ACFF404602F0DDFFD4F888302A465A
:104180003343C4F88830D4F8883005213340039392
:104190001D20039B02F09AFF1D2002F0CBFF2A4650
:1041A00005211E2002F092FF1E2002F0C3FF2846C8
:1041B00005F060FC08B172B6FEE705F06BFC08B1D3
:1041C00072B6FEE74FF000455A485B4BC0E9003538
:1041D00003F040F808B172B6FEE75848584BC0E902
:1041E000003503F037F8054608B172B6FEE7D4F89B
:1041F000A83043F00203C4F8A830D4F8A83003F084
:1042000002030293029B04F0A7FE4E484E4A8580AB
:104210000260C0E90555066205F0F0FB054608B1ED
:1042200072B6FEE7342201460BA833F02EFE474C4F
:10423000474B4FF44B7CC4E900350423C4E90533F4
:104240000C23C4E907334FF4F6734FF44D7EC4E9F1
:1042500009C34FF4FD73C4E902552561C4E90BE3BA
:10426000A58684F83650204604F0DCFC024608B1EE
:1042700072B6FEE74FF448710B90CDE90C10FF20A9
:104280004FF48065CDE9100205204FF4F073CDE9BD
:104290001250CDE9142120460BA9CDE90E37169313
:1042A000ADF85C208DF85E2004F099FD08B172B67F
:1042B000FEE74FF44032274B274CC3E90260C3E9C5
:1042C00006001846C3E9004204F023F908B172B6AB
:1042D000FEE72248224B036002F072FF08B172B67B
:1042E000FEE704231F4C20494FF08072C4E90013FD
:1042F00000230226C4E902321A222046C4E9042619
:10430000C4E90633C4E90833C4E90A332363C4E9C2
:104310000E3301F0CFFC054640B372B6FEE700BF96
:10432000000C02460010024200080242000C024249
:10433000000021108C370820001403408835082025
:10434000001803401035082000300240B435082022
:1043500000680140B837082000B00240043508204A
:1043600000F002402C37082000340D42024601467E
:10437000204607F01AFE2A462946204607F044FE4A
:10438000642004F0D7FD2A462946204607F031FD77
:1043900007232A46009329464FF44073204607F02E
:1043A000A7FD2A462946204607F023FD2B462A462C
:1043B00029462046009607F09BFD282004F0BAFD10
:1043C0000121204607F0C6FC194C1A4A1A4B204618
:1043D000C4E900230123A560C4E90335C4E90555F8
:1043E000C4E9075502F0AFF8014608B172B6FEE71E
:1043F000204602F0FBFD014608B172B6FEE72046FA
:1044000002F020FE08B172B6FEE70C480C4B0360C8
:1044100003F054FA08B172B6FEE705F035FC05F07A
:1044200032FC07F0A1FAFFF747FD07F0B3FAFEE709
:104430003435082000580040FF7BF000D4360820B7
:1044400000A002400268034B9A4201D104F060BD13
:10445000704700BF0010004072B6FEE7FEE7FEE7BF
:10446000FEE7FEE7FEE77047202003F037B80000C4
:10447000014802F0D5BC00BF5C360820014802F0BC
:10448000CFBC00BF20380820014804F075B900BF38
:10449000B8340820014804F07EB800BFB8370820BF
:1044A000014801F05BBE00BF2C370820014802F034
:1044B000A3BE00BF04350820014802F0B0BE00BF13
:1044C00004350820014804F029BC00BFB435082099
:1044D000FFF7F8BF014803F0B9BF00BFD43608208A
:1044E0000A4B0F21D3F894206FF0010042F0040230
:1044F000C3F894200022D3F8943082B003F0040370
:104500000193019B02B002F0E1BD00BF000C024626
:104510000268094B82B09A420CD1084BD3F888202C
:1045200042F48052C3F88820D3F8883003F48053D3
:104530000193019B02B0704700300240000C02461C
:104540000368124A82B093420ED1114BD3F88820EF
:1045500042F08042C3F88820D3F8883003F08043CB
:104560000093009B02B070470A4A9342FAD1084B6D
:10457000D3F8882042F40012C3F88820D3F888309A
:1045800003F400130193019BECE700BF0014034008
:10459000000C02460018034007B50F4B02689A4210
:1045A00017D10E4B0521D3F88820762042F48022C3
:1045B000C3F88820D3F88830002203F480230193C5
:1045C000019B02F083FD762003B05DF804EB02F05E
:1045D000B1BD03B05DF804FB00B00240000C024620
:1045E00007B5194B02689A422BD1184B0521D3F815
:1045F0008820842042F48012C3F88820D3F88820D1
:1046000002F480120092009AD3F8882042F400123B
:10461000C3F88820D3F88830002203F400130193F4
:10462000019B02F053FD842002F084FD002205214D
:10463000852002F04BFD852003B05DF804EB02F00D
:1046400079BD03B05DF804FB00F00240000C0246A7
:10465000F0B50446C1B01422002103A833F015FCC4
:10466000E022002108A833F010FC2268324B9A4265
:104670005FD101230022CDE908234FF40003032179
:10468000389304234220CDE90A130223CDE90C0319
:10469000CDE90E334FF4003308A8129304F03CFD2B
:1046A00008B1FFF7D9FE254B0024D3F8902002274C
:1046B00042F48052C3F89020D3F89020032602F4ED
:1046C00080520092009AD3F88C20082542F0800294
:1046D000C3F88C20D3F88C2003A902F08002019249
:1046E000019AD3F88C20164842F48072C3F88C20CB
:1046F000D3F88C30CDE9054603F480730293029B16
:104700004FF47E430795CDE9033702F0D9FD0F231F
:1047100003A90C48CDE90337CDE90546079502F01A
:10472000CFFD83202246052102F0D0FC832002F039
:1047300001FD41B0F0BD00BF00340D42000C024647
:10474000001C02420020024210B50446C0B01422F0
:10475000002103A833F099FBE022002108A833F0E0
:1047600094FB22681A4B9A422FD18022002308A87A
:10477000CDE9082304F0D0FC08B1FFF76DFE154C1D
:104780000322D4F88C3003A943F02003C4F88C3002
:10479000D4F88C30104803F020030193019B1223BE
:1047A000CDE903230023CDE905330423079302F069
:1047B00087FDD4F89C3043F48003C4F89C30D4F8CF
:1047C0009C3003F480030293029B40B010BD00BFF5
:1047D00000580040000C0246001402427FB53E4BD8
:1047E000026806469A4274D13C4B4FF40025D3F838
:1047F00088203B4C42F40042C3F888200222D3F8C0
:1048000088304FF4003CC4E905524FF4400203F4F1
:1048100000430193019BC4E907C27D23082231486C
:10482000C4E90922C4E900034FF080420023204676
:10483000C4E902332361C4E90B23636302F098F8EF
:1048400008B1FFF709FE746310212548E66502F000
:10485000AEFB08B1FFF700FE7C23234C234A002562
:10486000C4E900234FF48063C4E9025308234FF4E2
:104870000031C4E904354FF44002C4E909334FF470
:1048800080432046A561C4E90712C4E90B3565637E
:1048900002F06EF808B1FFF7DFFD4FF4805302A974
:1048A00011480295039301F0C5F808B1FFF7D4FD54
:1048B000346310210C48E66502F079FB08B1FFF77C
:1048C000CBFD8C200022072102F000FC8C2002F09E
:1048D00031FC04B070BD00BF00A00240000C0246D5
:1048E00020380820D00002405C36082050000240EA
:1048F000F0B514240546C3B0224600210DEB040098
:1049000033F0C3FAE02200210AA833F0BEFA2A6885
:10491000574B9A4240F0A98000220223CDE90A2396
:10492000042303227D21CDE915230823CDE91713A4
:104930000223CDE919344FF480230AA81D9304F013
:10494000EBFB08B1FFF788FD4A4B0024D3F8A42005
:10495000022542F08062C3F8A420D3F8A4200826E0
:1049600002F080620092009AD3F88C2005A942F0F0
:104970000202C3F88C20D3F88C203F4802F00202D8
:104980000192019AD3F88C20072742F01002C3F855
:104990008C20D3F88C2002F010020292029AD3F8F5
:1049A0008C2042F00802C3F88C20D3F88C2002F04F
:1049B00008020392039AD3F88C2042F00402C3F851
:1049C0008C20D3F88C30CDE9074403F00403049322
:1049D000049B04230996CDE9053502F071FC4FF6DE
:1049E000817305A92548CDE90535CDE90744099628
:1049F00002F066FC4FF64B7305A92148CDE9053559
:104A0000CDE90744099602F05BFCC02305A91D48C7
:104A1000CDE90535CDE90744099702F051FC4FF483
:104A2000407305A91748CDE90535CDE90744099636
:104A300002F046FC4FF4007305A90F48CDE9053597
:104A4000CDE90744099702F03BFC22460521872067
:104A500002F03CFB872002F06DFB882022460521F6
:104A600002F034FB882002F065FB43B0F0BD00BFCC
:104A700000680140000C024600040242001002429D
:104A8000000C0242000802421D4BDA6B02F4403275
:104A9000824208D1B2F5803F03D9DA6842F480221D
:104AA000DA60002070474FF47A71DA68B0F5803F21
:104AB00022F4E02288BF42F480221043D860114BD8
:104AC0001A683223B2FBF1F25343B3FBF1F3013323
:104AD0001A460B49C868000404D40AB90320704779
:104AE000013AF7E7002AF9D0054AD16B090403D44B
:104AF000002BF3D0013BF8E7002BD2D1EEE700BF4B
:104B00000008024648000020024BD86B00F44030F9
:104B1000704700BF000802464FF47A71124B1A68C2
:104B20003223B2FBF1F25343B3FBF1F30F4A0133EB
:104B3000916850B921F002019160D16B88070ED5C0
:104B40000BB903207047013BF7E741F00201916088
:104B5000D16B890703D4002BF3D0013BF8E7002B7E
:104B6000EFD00020704700BF480000200008024638
:104B7000024AD36A43F00103D36270470008024639
:104B800037B52B4D0446D5F894305B0718D5FFF7A1
:104B9000BBFF20F48033B3F5003F26D1B4F1805F32
:104BA0002CBF00200120234A136823F00F03034386
:104BB0001360136803F00F03181A18BF01201BE0DD
:104BC000D5F8943043F00403C5F89430D5F8943008
:104BD00003F004030193019BFFF796FFD5F894308F
:104BE00023F00403C5F89430D3E7B4F1805F05D215
:104BF000B0F5803F15D0012003B030BDB4F1005FA7
:104C000006D980B9B4F1405F8CBF00200120CAE70B
:104C1000B4F1805F09D1B0F5803F0CBF01200220C4
:104C2000C1E70320BFE70020BDE70120BBE700BFCD
:104C3000000C02460020024030B53E4BDA69996A0A
:104C400012F00C0205D00C2A42D101F00301012917
:104C50003ED19968090254BFD3F8F4309B683649B5
:104C600054BFC3F303331B0F51F82300002A5BD05A
:104C700000230C2A5BD12F49B7EE006A8C6A8B6A3D
:104C80008A6AC3F30323013307EE903A8D6BC2F3B4
:104C90000013C5F3CC056B43F8EEE76A07EE903AD4
:104CA00004F00303022BFAEEE97A1DD0032B1BD08C
:104CB0004B6BC3F3080307EE103AB8EEC77A77EEF2
:104CC000277A07EE100A77EE867AB8EE476A18E080
:104CD000DB6903F00C03042B04D0082A25D0002341
:104CE0000020C6E7154BFBE74B6BC3F3080307EE49
:104CF000103AB8EEC77A77EE277A77EE867A9FED8C
:104D0000106A86EE267A0B4B67EE877A5B6BC3F3ED
:104D10000663013307EE103AB8EEC77AC7EE876A2A
:104D2000FCEEE67A17EE900A30BD0448FCE7184620
:104D3000FAE700BF000C024648AE03080024F40066
:104D40000024744B2DE9F3410E46044618B90120A6
:104D500002B0BDE8F0819F4A136803F00F038B4255
:104D600075D32368DA067ED423681B070DD59A49CC
:104D700020690A6A120902F07002904281BF0B6A30
:104D800023F4E06343EA00130B6223685F070BD54B
:104D9000914AE068116A01F07001884281BF136A8C
:104DA00023F070030343136223689D070BD58A4ADF
:104DB000A068116A01F00F01884281BF136A23F0D5
:104DC0000F03034313622368D80759D42368990754
:104DD00000F1D9807F4A136803F00F03B34200F259
:104DE000DF802368590700F1E78023681A070DD593
:104DF000794920690A6A120902F0700290423FBFA5
:104E00000B6A23F4E06343EA00130B622368DB06BA
:104E10000BD5714A6069516A01F0700188423FBF49
:104E2000536A23F0700303435362FFF705FF6A4B95
:104E30006A4A1B6A03F00F03D35CD840684B1860C2
:104E4000684B186802B0BDE8F041FFF751B813682D
:104E500023F00F030B431360136803F00F038B421F
:104E60007FF475AF7DE75C4A6069516A01F07001BB
:104E7000884281BF536A23F070030343536273E790
:104E80006268554B032A4CD1D3F8942052073BD487
:104E90000127D3F8942042F00402C3F89420D3F8F9
:104EA000943003F004030193019B04F03DF84E4D50
:104EB0008046EA68530329D4474B2FB1D3F8942096
:104EC00022F00402C3F894201B6813F0007F3FF423
:104ED0003EAF414D6268EB6941F2883823F003032D
:104EE0001343EB6104F020F863680746032B25D1D8
:104EF000EB6903F00C030C2B3FF468AF04F014F8DB
:104F0000C01B4045F4D90AE00027CEE7EB685804FF
:104F1000D2D404F009F8A0EB08000228F6D9032047
:104F200016E7022A1B6802D113F4003FCFE712B93B
:104F300013F0040FCBE713F4806FC8E7022B0BD1FB
:104F4000EB6903F00C03082B3FF440AF03F0ECFFD8
:104F5000C01B4045F4D9E2E77BB9EB6913F00C0FB5
:104F60003FF434AF03F0E0FFC01B4045F5D9D6E76E
:104F700003F0DAFFC01B4045D1D8EB6903F00C0306
:104F8000042BF5D122E7144AA068116A01F00F0141
:104F900088423FBF136A23F00F030343136219E7EC
:104FA000136823F00F0333431360136803F00F03F8
:104FB000B3427FF4CCAE14E7074AE068116A01F00F
:104FC000700188423FBF136A23F0700303431362EA
:104FD0000BE700BF00200240000C024630AE030881
:104FE00048000020500000200008024608B5FFF7E6
:104FF00023FE054B054A1B6A03F00F03D35CD84020
:10500000034B186008BD00BF000C024630AE030819
:10501000480000202DE9FF41044608B9012049E07D
:10502000A84BDE699F6A036806F00C06D80607F0F5
:10503000030740F1A180E3691EB10C2E7BD1012F43
:1050400079D1002BEAD09F4D606AAB68190256BF38
:10505000D5F8F430AB681B0403F07043984239D99B
:10506000B6B1AB6843F40003AB60AB68626A23F08F
:1050700070431343AB60636A226AB3F1404F0CD2B2
:10508000002B1ADAEB6823F4787343EA421308E042
:10509000FFF776FD0028E4D0C0E7EB6823F01F039C
:1050A0001343EB60FFF7A2FF874B1868FEF720FF62
:1050B000002861D004B0BDE8F081B3F1804FEB6807
:1050C0002BBF23F4F84323F4782343EA822343EAF3
:1050D000C233E6E7AB6843F40003AB60AB68626AD7
:1050E00023F070431343AB60636A226AB3F1404F0D
:1050F0000CD3EB6823F01F031343EB60002ED1D1D8
:10510000606AFFF73DFD0028CCD087E7002B05DA69
:10511000EB6823F4787343EA4213EEE7B3F1804F70
:10512000EB682BBF23F4F84323F4782343EA82236C
:1051300043EAC233E1E7634D002B77D02B6843F09D
:1051400001032B6003F0F0FE80462B685A074FD511
:10515000AB6843F40003AB60AB68626A23F0704352
:105160001343AB60636A226AB3F1404F48D3EB68E4
:1051700023F01F031343EB602368DD0767D4236824
:10518000980700F1BF802368180740F13A814D4B22
:10519000D3F89420510700F1F3800126D3F894202E
:1051A00042F00402C3F89420D3F8943003F00403CF
:1051B0000193019B454DAB6ADA0740F1E3806369D7
:1051C000404D002B40F0EF80D5F8F03023F0A05395
:1051D000C5F8F03003F0A8FE0746D5F8F0301B0103
:1051E00040F1078103F0A0FEC01B0528F5D905E0BA
:1051F00003F09AFEA0EB08000228A6D9032059E785
:10520000002B05DAEB6823F4787343EA4213B2E724
:10521000B3F1804FEB6804D323F4F84343EA8223CD
:10522000A9E723F4782343EAC233A4E72B6823F0E9
:1052300001032B6003F078FE80462B685B079BD54B
:1052400003F072FEA0EB08000228F6D9D6E7082E7C
:10525000626803D00C2E04D1032F02D1002A8ED114
:10526000DCE6B2F5803F174B15D11A6842F4803264
:105270001A606368002B36D003F056FE8046114D4D
:105280002B6899033FF57BAF03F04EFEA0EB0800BF
:105290006428F5D9B2E7B2F5A02F08D11A6842F414
:1052A00080221A601A6822F480121A60DDE7B2F5D3
:1052B000A81F1A680CD142F480221A601A6842F4BE
:1052C0008012F2E7000C024650000020000802465F
:1052D00022F480321A601A6822F480221A601A6856
:1052E00022F48012C4E703F01FFE80466F4D2B6846
:1052F0009A037FF544AF03F017FEA0EB0800642883
:10530000F5D97BE7042EE36803D00C2E0DD1022FD4
:105310000BD1002B3FF482AE644A2169136923F458
:10532000F81343EA014313612DE7604DBBB12B68CD
:1053300043F480732B6003F0F7FD06462B685B0592
:1053400007D52B69226923F4F81343EA02432B6142
:1053500019E703F0E9FD801B0228EFD94EE72B681F
:1053600023F480732B6003F0DFFD06462B685F0596
:105370007FF509AF03F0D8FD801B0228F6D93DE781
:10538000002617E7AB6A43F00103AB6203F0CCFDE4
:105390000746AB6ADB073FF512AF03F0C5FDC01B44
:1053A0000228F6D92AE7D5F8F030A16903F0805237
:1053B000914210D003F04062B2F1006F3FF42EAE84
:1053C000580148D4394AA169D2F8F03023F080530B
:1053D0000B43C2F8F030354DD5F8F03043F0806320
:1053E000C5F8F03003F0A0FD0746D5F8F0301A01FB
:1053F00044D536B12D4AD2F8943023F00403C2F8D4
:10540000943023685D0740F18E80284BD3F89420B8
:10541000500739D40126D3F8942042F00402C3F88F
:105420009420D3F8943003F004030293029B204DA0
:10543000AB6AD9072AD5A2681C4B12F0010F39D1EB
:10544000D3F8F02022F00102C3F8F020D3F8F020C6
:1054500022F004023BE0D5F8F03023F0A053C5F869
:10546000F03003F061FD0746D5F8F0301901A9D5F9
:1054700003F05AFDC01B0528F6D9BFE603F054FD22
:10548000C01B0528B1D9B9E60026D0E7AB6A43F0C6
:105490000103AB6203F048FD0746AB6ADA07CAD4E2
:1054A00003F042FDC01B0228F7D9A7E6000C024614
:1054B0000008024612F0040FD3F8F0201EBF42F09D
:1054C0000402C3F8F020D3F8F02042F00102C3F840
:1054D000F020A368002B00F0DC8003F025FD41F2F2
:1054E00088380746A44DD5F8F0309B0740F1B180CD
:1054F000A36813F0800FD5F8F03000F0B88041F2C7
:10550000883843F08003C5F8F0309B4DD5F8F03073
:10551000180540F1A58036B1974AD2F8943023F0AF
:105520000403C2F894302368990600F1DB802368F5
:105530001A0600F1FC802368580600F12381A06B55
:1055400000283FF4B7AD8C4DEB6903F00C030C2B36
:1055500000F08A812B68022823F080732B6040F0D2
:105560006F8103F0E1FC0646296811F0007140F0FC
:105570005981D5F8943058070CD40121D5F89430CE
:1055800043F00403C5F89430D5F8943003F00403D5
:105590000393039B794DEE68EB6823F48023EB6063
:1055A000754B676C986AE26B20F47F403A4320F0B9
:1055B00003000243206C013842EA00229A62A26C86
:1055C0005F6B6F48013A3840C2F308020243E06C57
:1055D0000138400280B20243206D0138000400F41B
:1055E000FE000243606D0138000600F0FE400243F9
:1055F0005A639A6A22F010029A62E26DD2009A63AC
:105600009A6A42F010029A629A6AA06D22F00C0225
:1056100002439A62720342BFEA6842F48022EA605F
:1056200029B1D3F8942022F00402C3F894201A6818
:10563000514C42F080721A6003F076FC05462368F4
:105640009B0140F1F680A36A43F48023A36200200B
:1056500030E503F069FCC01B40457FF644AFCDE563
:1056600003F062FCC01B40457FF650AFC6E541F237
:10567000883823F08003C5F8F0303F4DD5F8F0307E
:1056800019057FF548AF03F04FFCC01B4045F5D925
:10569000B4E503F049FC41F288380746364DD5F8A9
:1056A000F0309A0718D4D5F8F0301B067FF533AFE9
:1056B00041F28838D5F8F03023F08003C5F8F03097
:1056C0002D4DD5F8F03018057FF525AF03F02CFCF3
:1056D000C01B4045F5D991E503F026FCC01B4045B1
:1056E000DDD98BE5E36A244D83B12B6843F4805305
:1056F0002B6003F019FC06462B689B043FF517AF9F
:1057000003F012FC801B0228F6D977E52B6823F4FE
:1057100080532B6003F008FC06462B689F047FF53E
:1057200006AF03F001FC801B0228F6D966E5236B67
:10573000114D83B12B6843F480432B6003F0F4FBDD
:1057400006462B6819043FF5F6AE03F0EDFB801B0F
:105750000228F6D952E52B6823F480432B6003F02E
:10576000E3FB06462B681A047FF5E5AE03F0DCFB8D
:10577000801B0228F6D941E5000C024600080246CB
:1057800000008080636B604D002B3AD0AB6843F41F
:105790000003AB60AB68A26A23F070631343AB6095
:1057A000636A226AB3F1404F16D3EB6823F01F03FC
:1057B0001343EB60544D2B6843F010032B6003F050
:1057C000B3FB06462B689B063FF5B9AE03F0ACFB76
:1057D000801B0228F6D911E5002B05DAEB6823F4CB
:1057E000787343EA4213E4E7B3F1804FEB682BBFD1
:1057F00023F4F84323F4782343EA822343EAC233B1
:10580000D7E72B6823F010032B6003F08DFB0646CF
:105810002B689F067FF593AE03F086FB801B022862
:10582000F6D9EBE403F080FB801B02287FF69CAEE8
:10583000E4E403F079FB401B02287FF600AFDDE4CF
:1058400003F072FB0446286810F0007006D1AB6AC2
:1058500023F4E02323F00303AB622BE403F064FBA7
:10586000001B0228EFD9C9E40128AA6A6B6B3FF438
:1058700021ACE06B02F0030181427FF4CFAB216CDD
:10588000C2F30320013988427FF4C8AB616C02F493
:1058900070428A427FF4C2ABA26CC3F30801013AA2
:1058A00091427FF4BBABE26CC3F34621013A9142D3
:1058B0007FF4B4AB226DC3F30641013A91427FF409
:1058C000ADAB626DC3F30663013A93427FF4A6ABBE
:1058D0000D4BE16D9A6BC2F3CC028A423FF4B7AE36
:1058E0009A6A22F010029A6203F01EFB054603F04A
:1058F0001BFBA842FBD0E26D034BD2009A639A6A6D
:1059000042F010029A62A2E6000C024608B5FFF7C8
:105910006DFB044B044A1B6AC3F30213D35CD840EB
:1059200008BD00BF000C024640AE03081F23036001
:105930000D4BDA6902F0030242601A6A02F00F02AC
:1059400082601A6A02F07002C2601A6A120902F0DA
:10595000700202615B6A03F070034361034B1B68D2
:1059600003F00F030B607047000C0246002002405A
:10597000002856D0416F002953D090F85430026867
:10598000DBB2012B526903D0022B45D1D30343D59F
:1059900090F85420D2B2012A37D190F84C30012B24
:1059A0004FF002033FD080F8543080F84C200B7346
:1059B0000023426F836513610268536943F4BA435D
:1059C0005361436E23B10268536943F4007353611A
:1059D000036F23B10268536943F400535361436F6B
:1059E00012491B681A6A1B0C12F0020F104A18BFEA
:1059F0000A4601681B040B60436F01681B6823F0B3
:105A000003031B041B0C1343CB670268002053697C
:105A100043F001035361704740238365002380F8FE
:105A20004C30012070471846704700BF000001FE4F
:105A3000000001F8B0B1A9B190F85430012B0CD19D
:105A4000D1E9001300680B43026C22F0406222F49B
:105A50006052134303640020704740238365002392
:105A600080F84C300120704703681869C0F3074084
:105A7000704700002DE9F0410268136823F040539D
:105A800013600368754A93420DD002F1805293422D
:105A900009D002F1704202F58052934203D002F124
:105AA0008052934257D182682AB91A6822F0800244
:105AB0004C6822431A600A680368022A5FD103F522
:105AC000C07203F5C47403F5C87503F5D073D1E94A
:105AD00012673E431660CE6A5EB18E6A1E604F6BDF
